{
  "_format": "hh-sol-artifact-1",
  "contractName": "BlokcCore",
  "sourceName": "contracts/BlokcCore.sol",
  "abi": [
    {
      "anonymous": false,
      "inputs": [
        {
          "indexed": true,
          "internalType": "address",
          "name": "previousOwner",
          "type": "address"
        },
        {
          "indexed": true,
          "internalType": "address",
          "name": "newOwner",
          "type": "address"
        }
      ],
      "name": "OwnershipTransferred",
      "type": "event"
    },
    {
      "inputs": [
        {
          "internalType": "uint256",
          "name": "_idGarden",
          "type": "uint256"
        },
        {
          "components": [
            {
              "internalType": "address",
              "name": "token",
              "type": "address"
            },
            {
              "internalType": "uint256",
              "name": "amount",
              "type": "uint256"
            }
          ],
          "internalType": "struct GardenBlokc.TokenAmount[]",
          "name": "composition",
          "type": "tuple[]"
        }
      ],
      "name": "changeGardenComposition4",
      "outputs": [],
      "stateMutability": "nonpayable",
      "type": "function"
    },
    {
      "inputs": [
        {
          "internalType": "uint256",
          "name": "_idGardener",
          "type": "uint256"
        },
        {
          "internalType": "uint256",
          "name": "_amount",
          "type": "uint256"
        },
        {
          "internalType": "address",
          "name": "_token",
          "type": "address"
        }
      ],
      "name": "createGarden",
      "outputs": [],
      "stateMutability": "nonpayable",
      "type": "function"
    },
    {
      "inputs": [],
      "name": "data",
      "outputs": [
        {
          "internalType": "uint256",
          "name": "",
          "type": "uint256"
        }
      ],
      "stateMutability": "view",
      "type": "function"
    },
    {
      "inputs": [],
      "name": "getAllGardeners",
      "outputs": [
        {
          "components": [
            {
              "internalType": "string",
              "name": "username",
              "type": "string"
            },
            {
              "internalType": "address",
              "name": "gardenerAddress",
              "type": "address"
            },
            {
              "internalType": "uint256[]",
              "name": "gardenIds",
              "type": "uint256[]"
            }
          ],
          "internalType": "struct GardenerBlokc.Gardener[]",
          "name": "",
          "type": "tuple[]"
        }
      ],
      "stateMutability": "view",
      "type": "function"
    },
    {
      "inputs": [
        {
          "internalType": "uint256",
          "name": "_gardenId",
          "type": "uint256"
        }
      ],
      "name": "getGardenById",
      "outputs": [
        {
          "components": [
            {
              "internalType": "uint256",
              "name": "id",
              "type": "uint256"
            },
            {
              "internalType": "address",
              "name": "owner",
              "type": "address"
            },
            {
              "internalType": "uint256",
              "name": "gardenerId",
              "type": "uint256"
            },
            {
              "components": [
                {
                  "internalType": "address",
                  "name": "token",
                  "type": "address"
                },
                {
                  "internalType": "uint256",
                  "name": "amount",
                  "type": "uint256"
                }
              ],
              "internalType": "struct GardenBlokc.TokenAmount[]",
              "name": "composition",
              "type": "tuple[]"
            },
            {
              "internalType": "uint256",
              "name": "createdAt",
              "type": "uint256"
            }
          ],
          "internalType": "struct GardenBlokc.Garden",
          "name": "",
          "type": "tuple"
        }
      ],
      "stateMutability": "view",
      "type": "function"
    },
    {
      "inputs": [],
      "name": "getGardenForGardener",
      "outputs": [
        {
          "internalType": "uint256[]",
          "name": "gardensId",
          "type": "uint256[]"
        }
      ],
      "stateMutability": "view",
      "type": "function"
    },
    {
      "inputs": [
        {
          "internalType": "uint256",
          "name": "_gardenerId",
          "type": "uint256"
        }
      ],
      "name": "getGardener",
      "outputs": [
        {
          "components": [
            {
              "internalType": "string",
              "name": "username",
              "type": "string"
            },
            {
              "internalType": "address",
              "name": "gardenerAddress",
              "type": "address"
            },
            {
              "internalType": "uint256[]",
              "name": "gardenIds",
              "type": "uint256[]"
            }
          ],
          "internalType": "struct GardenerBlokc.Gardener",
          "name": "",
          "type": "tuple"
        }
      ],
      "stateMutability": "view",
      "type": "function"
    },
    {
      "inputs": [],
      "name": "getIdGardener",
      "outputs": [
        {
          "internalType": "uint256",
          "name": "id",
          "type": "uint256"
        }
      ],
      "stateMutability": "view",
      "type": "function"
    },
    {
      "inputs": [],
      "name": "getUserGardens",
      "outputs": [
        {
          "components": [
            {
              "internalType": "uint256",
              "name": "id",
              "type": "uint256"
            },
            {
              "internalType": "address",
              "name": "owner",
              "type": "address"
            },
            {
              "internalType": "uint256",
              "name": "gardenerId",
              "type": "uint256"
            },
            {
              "components": [
                {
                  "internalType": "address",
                  "name": "token",
                  "type": "address"
                },
                {
                  "internalType": "uint256",
                  "name": "amount",
                  "type": "uint256"
                }
              ],
              "internalType": "struct GardenBlokc.TokenAmount[]",
              "name": "composition",
              "type": "tuple[]"
            },
            {
              "internalType": "uint256",
              "name": "createdAt",
              "type": "uint256"
            }
          ],
          "internalType": "struct GardenBlokc.Garden[]",
          "name": "",
          "type": "tuple[]"
        }
      ],
      "stateMutability": "view",
      "type": "function"
    },
    {
      "inputs": [],
      "name": "owner",
      "outputs": [
        {
          "internalType": "address",
          "name": "",
          "type": "address"
        }
      ],
      "stateMutability": "view",
      "type": "function"
    },
    {
      "inputs": [
        {
          "internalType": "string",
          "name": "_username",
          "type": "string"
        },
        {
          "internalType": "address",
          "name": "_addressGardener",
          "type": "address"
        }
      ],
      "name": "registerGardener",
      "outputs": [],
      "stateMutability": "nonpayable",
      "type": "function"
    },
    {
      "inputs": [],
      "name": "renounceOwnership",
      "outputs": [],
      "stateMutability": "nonpayable",
      "type": "function"
    },
    {
      "inputs": [
        {
          "internalType": "address",
          "name": "newOwner",
          "type": "address"
        }
      ],
      "name": "transferOwnership",
      "outputs": [],
      "stateMutability": "nonpayable",
      "type": "function"
    }
  ],
  "bytecode": "0x60806040523480156200001157600080fd5b5062000032620000266200003860201b60201c565b6200004060201b60201c565b62000104565b600033905090565b60008060009054906101000a900473ffffffffffffffffffffffffffffffffffffffff169050816000806101000a81548173ffffffffffffffffffffffffffffffffffffffff021916908373ffffffffffffffffffffffffffffffffffffffff1602179055508173ffffffffffffffffffffffffffffffffffffffff168173ffffffffffffffffffffffffffffffffffffffff167f8be0079c531659141344cd1fd0a4f28419497f9722a3daafe3b4186f6b6457e060405160405180910390a35050565b612ae980620001146000396000f3fe608060405234801561001057600080fd5b50600436106100cf5760003560e01c80637ff6c78c1161008c578063b6f5761011610066578063b6f57610146101f0578063bfeae7a81461020c578063eaea91ff14610228578063f2fde38b14610246576100cf565b80637ff6c78c146101845780638da5cb5b146101b457806393ddfc91146101d2576100cf565b806330e91e9f146100d45780634a67a09f146101045780634a94be3f14610122578063715018a61461013e57806373d4a13a1461014857806378a0da1e14610166575b600080fd5b6100ee60048036038101906100e991906118bd565b610262565b6040516100fb9190611a8e565b60405180910390f35b61010c61043a565b6040516101199190611d08565b60405180910390f35b61013c60048036038101906101379190611d56565b610645565b005b6101466107fa565b005b61015061080e565b60405161015d9190611db8565b60405180910390f35b61016e610814565b60405161017b9190611f0b565b60405180910390f35b61019e600480360381019061019991906118bd565b610ab8565b6040516101ab9190611f84565b60405180910390f35b6101bc610c76565b6040516101c99190611fb5565b60405180910390f35b6101da610c9f565b6040516101e79190611db8565b60405180910390f35b61020a6004803603810190610205919061216d565b610d78565b005b6102266004803603810190610221919061227e565b6110aa565b005b610230611265565b60405161023d9190612349565b60405180910390f35b610260600480360381019061025b919061236b565b6114a5565b005b61026a61178d565b6000600660008481526020019081526020016000206040518060a0016040529081600082015481526020016001820160009054906101000a900473ffffffffffffffffffffffffffffffffffffffff1673ffffffffffffffffffffffffffffffffffffffff1673ffffffffffffffffffffffffffffffffffffffff1681526020016002820154815260200160038201805480602002602001604051908101604052809291908181526020016000905b828210156103ab57838290600052602060002090600202016040518060400160405290816000820160009054906101000a900473ffffffffffffffffffffffffffffffffffffffff1673ffffffffffffffffffffffffffffffffffffffff1673ffffffffffffffffffffffffffffffffffffffff16815260200160018201548152505081526020019060010190610319565b50505050815260200160048201548152505090503373ffffffffffffffffffffffffffffffffffffffff16816020015173ffffffffffffffffffffffffffffffffffffffff1614610431576040517f08c379a0000000000000000000000000000000000000000000000000000000008152600401610428906123f5565b60405180910390fd5b80915050919050565b606060006104486001611528565b905060008167ffffffffffffffff81111561046657610465611fd5565b5b60405190808252806020026020018201604052801561049f57816020015b61048c6117d2565b8152602001906001900390816104845790505b50905060005b8281101561063c57600260008281526020019081526020016000206040518060600160405290816000820180546104db90612444565b80601f016020809104026020016040519081016040528092919081815260200182805461050790612444565b80156105545780601f1061052957610100808354040283529160200191610554565b820191906000526020600020905b81548152906001019060200180831161053757829003601f168201915b505050505081526020016001820160009054906101000a900473ffffffffffffffffffffffffffffffffffffffff1673ffffffffffffffffffffffffffffffffffffffff1673ffffffffffffffffffffffffffffffffffffffff1681526020016002820180548060200260200160405190810160405280929190818152602001828054801561060257602002820191906000526020600020905b8154815260200190600101908083116105ee575b50505050508152505082828151811061061e5761061d612475565b5b60200260200101819052508080610634906124d3565b9150506104a5565b50809250505090565b60006106516005611528565b905061065d6005611536565b610667848261154c565b600760003373ffffffffffffffffffffffffffffffffffffffff1673ffffffffffffffffffffffffffffffffffffffff1681526020019081526020016000208190806001815401808255809150506001900390600052602060002001600090919091909150556000600660008381526020019081526020016000209050818160000181905550338160010160006101000a81548173ffffffffffffffffffffffffffffffffffffffff021916908373ffffffffffffffffffffffffffffffffffffffff160217905550848160020181905550428160040181905550600060405180604001604052808573ffffffffffffffffffffffffffffffffffffffff1681526020018681525090508160030181908060018154018082558091505060019003906000526020600020906002020160009091909190915060008201518160000160006101000a81548173ffffffffffffffffffffffffffffffffffffffff021916908373ffffffffffffffffffffffffffffffffffffffff160217905550602082015181600101555050505050505050565b610802611643565b61080c60006116c1565b565b60085481565b60606000600760003373ffffffffffffffffffffffffffffffffffffffff1673ffffffffffffffffffffffffffffffffffffffff1681526020019081526020016000208054806020026020016040519081016040528092919081815260200182805480156108a157602002820191906000526020600020905b81548152602001906001019080831161088d575b505050505090506000815167ffffffffffffffff8111156108c5576108c4611fd5565b5b6040519080825280602002602001820160405280156108fe57816020015b6108eb61178d565b8152602001906001900390816108e35790505b50905060005b8251811015610aaf5760006006600085848151811061092657610925612475565b5b602002602001015181526020019081526020016000206040518060a0016040529081600082015481526020016001820160009054906101000a900473ffffffffffffffffffffffffffffffffffffffff1673ffffffffffffffffffffffffffffffffffffffff1673ffffffffffffffffffffffffffffffffffffffff1681526020016002820154815260200160038201805480602002602001604051908101604052809291908181526020016000905b82821015610a6857838290600052602060002090600202016040518060400160405290816000820160009054906101000a900473ffffffffffffffffffffffffffffffffffffffff1673ffffffffffffffffffffffffffffffffffffffff1673ffffffffffffffffffffffffffffffffffffffff168152602001600182015481525050815260200190600101906109d6565b505050508152602001600482015481525050905080838381518110610a9057610a8f612475565b5b6020026020010181905250508080610aa7906124d3565b915050610904565b50809250505090565b610ac06117d2565b610aca6001611528565b8210610b0b576040517f08c379a0000000000000000000000000000000000000000000000000000000008152600401610b0290612567565b60405180910390fd5b600060026000848152602001908152602001600020604051806060016040529081600082018054610b3b90612444565b80601f0160208091040260200160405190810160405280929190818152602001828054610b6790612444565b8015610bb45780601f10610b8957610100808354040283529160200191610bb4565b820191906000526020600020905b815481529060010190602001808311610b9757829003601f168201915b505050505081526020016001820160009054906101000a900473ffffffffffffffffffffffffffffffffffffffff1673ffffffffffffffffffffffffffffffffffffffff1673ffffffffffffffffffffffffffffffffffffffff16815260200160028201805480602002602001604051908101604052809291908181526020018280548015610c6257602002820191906000526020600020905b815481526020019060010190808311610c4e575b505050505081525050905080915050919050565b60008060009054906101000a900473ffffffffffffffffffffffffffffffffffffffff16905090565b6000600460003373ffffffffffffffffffffffffffffffffffffffff1673ffffffffffffffffffffffffffffffffffffffff16815260200190815260200160002060009054906101000a900460ff16610d2d576040517f08c379a0000000000000000000000000000000000000000000000000000000008152600401610d24906125d3565b60405180910390fd5b6000600360003373ffffffffffffffffffffffffffffffffffffffff1673ffffffffffffffffffffffffffffffffffffffff1681526020019081526020016000205490508091505090565b816000600660008381526020019081526020016000206040518060a0016040529081600082015481526020016001820160009054906101000a900473ffffffffffffffffffffffffffffffffffffffff1673ffffffffffffffffffffffffffffffffffffffff1673ffffffffffffffffffffffffffffffffffffffff1681526020016002820154815260200160038201805480602002602001604051908101604052809291908181526020016000905b82821015610eba57838290600052602060002090600202016040518060400160405290816000820160009054906101000a900473ffffffffffffffffffffffffffffffffffffffff1673ffffffffffffffffffffffffffffffffffffffff1673ffffffffffffffffffffffffffffffffffffffff16815260200160018201548152505081526020019060010190610e28565b50505050815260200160048201548152505090503373ffffffffffffffffffffffffffffffffffffffff16600260008360400151815260200190815260200160002060010160009054906101000a900473ffffffffffffffffffffffffffffffffffffffff1673ffffffffffffffffffffffffffffffffffffffff1614610f76576040517f08c379a0000000000000000000000000000000000000000000000000000000008152600401610f6d9061263f565b60405180910390fd5b610f806005611528565b8410610fc1576040517f08c379a0000000000000000000000000000000000000000000000000000000008152600401610fb8906126ab565b60405180910390fd5b6000600660008681526020019081526020016000209050806003016000610fe89190611809565b60005b84518110156110a2578160030185828151811061100b5761100a612475565b5b6020026020010151908060018154018082558091505060019003906000526020600020906002020160009091909190915060008201518160000160006101000a81548173ffffffffffffffffffffffffffffffffffffffff021916908373ffffffffffffffffffffffffffffffffffffffff160217905550602082015181600101555050808061109a906124d3565b915050610feb565b505050505050565b6110b2611643565b600460008273ffffffffffffffffffffffffffffffffffffffff1673ffffffffffffffffffffffffffffffffffffffff16815260200190815260200160002060009054906101000a900460ff161561113f576040517f08c379a000000000000000000000000000000000000000000000000000000000815260040161113690612717565b60405180910390fd5b600061114b6001611528565b90506111576001611536565b6000600260008381526020019081526020016000209050828160010160006101000a81548173ffffffffffffffffffffffffffffffffffffffff021916908373ffffffffffffffffffffffffffffffffffffffff160217905550838160000190816111c291906128e3565b506001600460008573ffffffffffffffffffffffffffffffffffffffff1673ffffffffffffffffffffffffffffffffffffffff16815260200190815260200160002060006101000a81548160ff02191690831515021790555081600360008573ffffffffffffffffffffffffffffffffffffffff1673ffffffffffffffffffffffffffffffffffffffff1681526020019081526020016000208190555050505050565b6060600460003373ffffffffffffffffffffffffffffffffffffffff1673ffffffffffffffffffffffffffffffffffffffff16815260200190815260200160002060009054906101000a900460ff166112f3576040517f08c379a00000000000000000000000000000000000000000000000000000000081526004016112ea906125d3565b60405180910390fd5b6000600360003373ffffffffffffffffffffffffffffffffffffffff1673ffffffffffffffffffffffffffffffffffffffff16815260200190815260200160002054905060006002600083815260200190815260200160002060405180606001604052908160008201805461136790612444565b80601f016020809104026020016040519081016040528092919081815260200182805461139390612444565b80156113e05780601f106113b5576101008083540402835291602001916113e0565b820191906000526020600020905b8154815290600101906020018083116113c357829003601f168201915b505050505081526020016001820160009054906101000a900473ffffffffffffffffffffffffffffffffffffffff1673ffffffffffffffffffffffffffffffffffffffff1673ffffffffffffffffffffffffffffffffffffffff1681526020016002820180548060200260200160405190810160405280929190818152602001828054801561148e57602002820191906000526020600020905b81548152602001906001019080831161147a575b505050505081525050905080604001519250505090565b6114ad611643565b600073ffffffffffffffffffffffffffffffffffffffff168173ffffffffffffffffffffffffffffffffffffffff160361151c576040517f08c379a000000000000000000000000000000000000000000000000000000000815260040161151390612a27565b60405180910390fd5b611525816116c1565b50565b600081600001549050919050565b6001816000016000828254019250508190555050565b6000600260008481526020019081526020016000209050600460008260010160009054906101000a900473ffffffffffffffffffffffffffffffffffffffff1673ffffffffffffffffffffffffffffffffffffffff1673ffffffffffffffffffffffffffffffffffffffff16815260200190815260200160002060009054906101000a900460ff16611613576040517f08c379a000000000000000000000000000000000000000000000000000000000815260040161160a906125d3565b60405180910390fd5b80600201829080600181540180825580915050600190039060005260206000200160009091909190915055505050565b61164b611785565b73ffffffffffffffffffffffffffffffffffffffff16611669610c76565b73ffffffffffffffffffffffffffffffffffffffff16146116bf576040517f08c379a00000000000000000000000000000000000000000000000000000000081526004016116b690612a93565b60405180910390fd5b565b60008060009054906101000a900473ffffffffffffffffffffffffffffffffffffffff169050816000806101000a81548173ffffffffffffffffffffffffffffffffffffffff021916908373ffffffffffffffffffffffffffffffffffffffff1602179055508173ffffffffffffffffffffffffffffffffffffffff168173ffffffffffffffffffffffffffffffffffffffff167f8be0079c531659141344cd1fd0a4f28419497f9722a3daafe3b4186f6b6457e060405160405180910390a35050565b600033905090565b6040518060a0016040528060008152602001600073ffffffffffffffffffffffffffffffffffffffff1681526020016000815260200160608152602001600081525090565b604051806060016040528060608152602001600073ffffffffffffffffffffffffffffffffffffffff168152602001606081525090565b508054600082556002029060005260206000209081019061182a919061182d565b50565b5b8082111561186f57600080820160006101000a81549073ffffffffffffffffffffffffffffffffffffffff021916905560018201600090555060020161182e565b5090565b6000604051905090565b600080fd5b600080fd5b6000819050919050565b61189a81611887565b81146118a557600080fd5b50565b6000813590506118b781611891565b92915050565b6000602082840312156118d3576118d261187d565b5b60006118e1848285016118a8565b91505092915050565b6118f381611887565b82525050565b600073ffffffffffffffffffffffffffffffffffffffff82169050919050565b6000611924826118f9565b9050919050565b61193481611919565b82525050565b600081519050919050565b600082825260208201905092915050565b6000819050602082019050919050565b60408201600082015161197c600085018261192b565b50602082015161198f60208501826118ea565b50505050565b60006119a18383611966565b60408301905092915050565b6000602082019050919050565b60006119c58261193a565b6119cf8185611945565b93506119da83611956565b8060005b83811015611a0b5781516119f28882611995565b97506119fd836119ad565b9250506001810190506119de565b5085935050505092915050565b600060a083016000830151611a3060008601826118ea565b506020830151611a43602086018261192b565b506040830151611a5660408601826118ea565b5060608301518482036060860152611a6e82826119ba565b9150506080830151611a8360808601826118ea565b508091505092915050565b60006020820190508181036000830152611aa88184611a18565b905092915050565b600081519050919050565b600082825260208201905092915050565b6000819050602082019050919050565b600081519050919050565b600082825260208201905092915050565b60005b83811015611b16578082015181840152602081019050611afb565b60008484015250505050565b6000601f19601f8301169050919050565b6000611b3e82611adc565b611b488185611ae7565b9350611b58818560208601611af8565b611b6181611b22565b840191505092915050565b600081519050919050565b600082825260208201905092915050565b6000819050602082019050919050565b6000611ba483836118ea565b60208301905092915050565b6000602082019050919050565b6000611bc882611b6c565b611bd28185611b77565b9350611bdd83611b88565b8060005b83811015611c0e578151611bf58882611b98565b9750611c0083611bb0565b925050600181019050611be1565b5085935050505092915050565b60006060830160008301518482036000860152611c388282611b33565b9150506020830151611c4d602086018261192b565b5060408301518482036040860152611c658282611bbd565b9150508091505092915050565b6000611c7e8383611c1b565b905092915050565b6000602082019050919050565b6000611c9e82611ab0565b611ca88185611abb565b935083602082028501611cba85611acc565b8060005b85811015611cf65784840389528151611cd78582611c72565b9450611ce283611c86565b925060208a01995050600181019050611cbe565b50829750879550505050505092915050565b60006020820190508181036000830152611d228184611c93565b905092915050565b611d3381611919565b8114611d3e57600080fd5b50565b600081359050611d5081611d2a565b92915050565b600080600060608486031215611d6f57611d6e61187d565b5b6000611d7d868287016118a8565b9350506020611d8e868287016118a8565b9250506040611d9f86828701611d41565b9150509250925092565b611db281611887565b82525050565b6000602082019050611dcd6000830184611da9565b92915050565b600081519050919050565b600082825260208201905092915050565b6000819050602082019050919050565b600060a083016000830151611e1760008601826118ea565b506020830151611e2a602086018261192b565b506040830151611e3d60408601826118ea565b5060608301518482036060860152611e5582826119ba565b9150506080830151611e6a60808601826118ea565b508091505092915050565b6000611e818383611dff565b905092915050565b6000602082019050919050565b6000611ea182611dd3565b611eab8185611dde565b935083602082028501611ebd85611def565b8060005b85811015611ef95784840389528151611eda8582611e75565b9450611ee583611e89565b925060208a01995050600181019050611ec1565b50829750879550505050505092915050565b60006020820190508181036000830152611f258184611e96565b905092915050565b60006060830160008301518482036000860152611f4a8282611b33565b9150506020830151611f5f602086018261192b565b5060408301518482036040860152611f778282611bbd565b9150508091505092915050565b60006020820190508181036000830152611f9e8184611f2d565b905092915050565b611faf81611919565b82525050565b6000602082019050611fca6000830184611fa6565b92915050565b600080fd5b7f4e487b7100000000000000000000000000000000000000000000000000000000600052604160045260246000fd5b61200d82611b22565b810181811067ffffffffffffffff8211171561202c5761202b611fd5565b5b80604052505050565b600061203f611873565b905061204b8282612004565b919050565b600067ffffffffffffffff82111561206b5761206a611fd5565b5b602082029050602081019050919050565b600080fd5b600080fd5b60006040828403121561209c5761209b612081565b5b6120a66040612035565b905060006120b684828501611d41565b60008301525060206120ca848285016118a8565b60208301525092915050565b60006120e96120e484612050565b612035565b9050808382526020820190506040840283018581111561210c5761210b61207c565b5b835b8181101561213557806121218882612086565b84526020840193505060408101905061210e565b5050509392505050565b600082601f83011261215457612153611fd0565b5b81356121648482602086016120d6565b91505092915050565b600080604083850312156121845761218361187d565b5b6000612192858286016118a8565b925050602083013567ffffffffffffffff8111156121b3576121b2611882565b5b6121bf8582860161213f565b9150509250929050565b600080fd5b600067ffffffffffffffff8211156121e9576121e8611fd5565b5b6121f282611b22565b9050602081019050919050565b82818337600083830152505050565b600061222161221c846121ce565b612035565b90508281526020810184848401111561223d5761223c6121c9565b5b6122488482856121ff565b509392505050565b600082601f83011261226557612264611fd0565b5b813561227584826020860161220e565b91505092915050565b600080604083850312156122955761229461187d565b5b600083013567ffffffffffffffff8111156122b3576122b2611882565b5b6122bf85828601612250565b92505060206122d085828601611d41565b9150509250929050565b600082825260208201905092915050565b60006122f682611b6c565b61230081856122da565b935061230b83611b88565b8060005b8381101561233c5781516123238882611b98565b975061232e83611bb0565b92505060018101905061230f565b5085935050505092915050565b6000602082019050818103600083015261236381846122eb565b905092915050565b6000602082840312156123815761238061187d565b5b600061238f84828501611d41565b91505092915050565b600082825260208201905092915050565b7f6e6f74206f776e65722047617264656e00000000000000000000000000000000600082015250565b60006123df601083612398565b91506123ea826123a9565b602082019050919050565b6000602082019050818103600083015261240e816123d2565b9050919050565b7f4e487b7100000000000000000000000000000000000000000000000000000000600052602260045260246000fd5b6000600282049050600182168061245c57607f821691505b60208210810361246f5761246e612415565b5b50919050565b7f4e487b7100000000000000000000000000000000000000000000000000000000600052603260045260246000fd5b7f4e487b7100000000000000000000000000000000000000000000000000000000600052601160045260246000fd5b60006124de82611887565b91507fffffffffffffffffffffffffffffffffffffffffffffffffffffffffffffffff82036125105761250f6124a4565b5b600182019050919050565b7f47617264656e657220646f65736e277420657869737400000000000000000000600082015250565b6000612551601683612398565b915061255c8261251b565b602082019050919050565b6000602082019050818103600083015261258081612544565b9050919050565b7f47617264656e6572206973206e6f742072656769737465726564000000000000600082015250565b60006125bd601a83612398565b91506125c882612587565b602082019050919050565b600060208201905081810360008301526125ec816125b0565b9050919050565b7f4e6f7420612067617264656e6572000000000000000000000000000000000000600082015250565b6000612629600e83612398565b9150612634826125f3565b602082019050919050565b600060208201905081810360008301526126588161261c565b9050919050565b7f47617264656e20646f65736e2774206578697374000000000000000000000000600082015250565b6000612695601483612398565b91506126a08261265f565b602082019050919050565b600060208201905081810360008301526126c481612688565b9050919050565b7f47617264656e657220697320616c726561647920726567697374657265640000600082015250565b6000612701601e83612398565b915061270c826126cb565b602082019050919050565b60006020820190508181036000830152612730816126f4565b9050919050565b60008190508160005260206000209050919050565b60006020601f8301049050919050565b600082821b905092915050565b6000600883026127997fffffffffffffffffffffffffffffffffffffffffffffffffffffffffffffffff8261275c565b6127a3868361275c565b95508019841693508086168417925050509392505050565b6000819050919050565b60006127e06127db6127d684611887565b6127bb565b611887565b9050919050565b6000819050919050565b6127fa836127c5565b61280e612806826127e7565b848454612769565b825550505050565b600090565b612823612816565b61282e8184846127f1565b505050565b5b818110156128525761284760008261281b565b600181019050612834565b5050565b601f8211156128975761286881612737565b6128718461274c565b81016020851015612880578190505b61289461288c8561274c565b830182612833565b50505b505050565b600082821c905092915050565b60006128ba6000198460080261289c565b1980831691505092915050565b60006128d383836128a9565b9150826002028217905092915050565b6128ec82611adc565b67ffffffffffffffff81111561290557612904611fd5565b5b61290f8254612444565b61291a828285612856565b600060209050601f83116001811461294d576000841561293b578287015190505b61294585826128c7565b8655506129ad565b601f19841661295b86612737565b60005b828110156129835784890151825560018201915060208501945060208101905061295e565b868310156129a0578489015161299c601f8916826128a9565b8355505b6001600288020188555050505b505050505050565b7f4f776e61626c653a206e6577206f776e657220697320746865207a65726f206160008201527f6464726573730000000000000000000000000000000000000000000000000000602082015250565b6000612a11602683612398565b9150612a1c826129b5565b604082019050919050565b60006020820190508181036000830152612a4081612a04565b9050919050565b7f4f776e61626c653a2063616c6c6572206973206e6f7420746865206f776e6572600082015250565b6000612a7d602083612398565b9150612a8882612a47565b602082019050919050565b60006020820190508181036000830152612aac81612a70565b905091905056fea2646970667358221220e84cfb275cfe2848541968b943ec1f5b78abfae8fdd80c894f467fd51651c8b164736f6c63430008130033",
  "linkReferences": {},
  "deployedLinkReferences": {}
}